:0400000000EF01F01C
:100200000F0EC16E010E936E976AF00E996E3C0E42
:10021000946EEF0E926EFF0E8E6E896AFF0E906ED8
:1002200082503C0B006E004200400F0B026F090A27
:1002300018E000D002508E6E8988896AFF0E8E6E9B
:100240008750F00B016E0132013201320130025C45
:100250000CE010E214D0FF0E8E6E8150010B14E002
:10026000DAD78E6A8988896AEBD70E0E8E6E9090E7
:100270009080F1D7140E8E6E90909080ECD78F0EF8
:100280008E6E90909080E7D79092850E8E6EFF0EC6
:04029000906EC1D7D4
:020000040030CA
:06000100021F1EF38381C3
:06000800FFC0FFE0FF4015
:00000001FF
